{
  "contractName": "BikeRenting",
  "abi": [
    {
      "inputs": [],
      "stateMutability": "nonpayable",
      "type": "constructor"
    },
    {
      "inputs": [
        {
          "internalType": "address",
          "name": "",
          "type": "address"
        }
      ],
      "name": "balances",
      "outputs": [
        {
          "internalType": "uint256",
          "name": "",
          "type": "uint256"
        }
      ],
      "stateMutability": "view",
      "type": "function"
    },
    {
      "inputs": [
        {
          "internalType": "uint256",
          "name": "",
          "type": "uint256"
        }
      ],
      "name": "bikes",
      "outputs": [
        {
          "internalType": "string",
          "name": "name",
          "type": "string"
        },
        {
          "internalType": "uint256",
          "name": "price",
          "type": "uint256"
        }
      ],
      "stateMutability": "view",
      "type": "function"
    },
    {
      "inputs": [],
      "name": "client",
      "outputs": [
        {
          "internalType": "address payable",
          "name": "",
          "type": "address"
        }
      ],
      "stateMutability": "view",
      "type": "function"
    },
    {
      "inputs": [],
      "name": "owner",
      "outputs": [
        {
          "internalType": "address payable",
          "name": "",
          "type": "address"
        }
      ],
      "stateMutability": "view",
      "type": "function"
    },
    {
      "inputs": [
        {
          "internalType": "uint256",
          "name": "_amount",
          "type": "uint256"
        }
      ],
      "name": "rentRoyalAllDay",
      "outputs": [],
      "stateMutability": "payable",
      "type": "function"
    },
    {
      "inputs": [
        {
          "internalType": "uint256",
          "name": "_amount",
          "type": "uint256"
        }
      ],
      "name": "rentRoyalHalfDay",
      "outputs": [],
      "stateMutability": "payable",
      "type": "function"
    },
    {
      "inputs": [
        {
          "internalType": "uint256",
          "name": "_amount",
          "type": "uint256"
        }
      ],
      "name": "rentTriumphAllDay",
      "outputs": [],
      "stateMutability": "payable",
      "type": "function"
    },
    {
      "inputs": [
        {
          "internalType": "uint256",
          "name": "_amount",
          "type": "uint256"
        }
      ],
      "name": "rentTriumphHalfDay",
      "outputs": [],
      "stateMutability": "payable",
      "type": "function"
    },
    {
      "inputs": [
        {
          "internalType": "uint256",
          "name": "_amount",
          "type": "uint256"
        }
      ],
      "name": "rentBmwAllDay",
      "outputs": [],
      "stateMutability": "payable",
      "type": "function"
    },
    {
      "inputs": [
        {
          "internalType": "uint256",
          "name": "_amount",
          "type": "uint256"
        }
      ],
      "name": "rentBmwHalfDay",
      "outputs": [],
      "stateMutability": "payable",
      "type": "function"
    },
    {
      "inputs": [
        {
          "internalType": "uint256",
          "name": "_amount",
          "type": "uint256"
        }
      ],
      "name": "rentApriliaAllDay",
      "outputs": [],
      "stateMutability": "payable",
      "type": "function"
    },
    {
      "inputs": [
        {
          "internalType": "uint256",
          "name": "_amount",
          "type": "uint256"
        }
      ],
      "name": "rentApriliaHalfDay",
      "outputs": [],
      "stateMutability": "payable",
      "type": "function"
    },
    {
      "inputs": [
        {
          "internalType": "uint256",
          "name": "_amount",
          "type": "uint256"
        }
      ],
      "name": "rentDucatiAllDay",
      "outputs": [],
      "stateMutability": "payable",
      "type": "function"
    },
    {
      "inputs": [
        {
          "internalType": "uint256",
          "name": "_amount",
          "type": "uint256"
        }
      ],
      "name": "rentDucatiHalfDay",
      "outputs": [],
      "stateMutability": "payable",
      "type": "function"
    }
  ],
  "bytecode": "0x608060405234801561001057600080fd5b50336000806101000a81548173ffffffffffffffffffffffffffffffffffffffff021916908373ffffffffffffffffffffffffffffffffffffffff16021790555061117b806100606000396000f3fe6080604052600436106100dd5760003560e01c806355e567481161007f5780638da5cb5b116100595780638da5cb5b1461024c57806392e0ee47146102775780639a0a72c914610293578063f847e275146102af576100dd565b806355e56748146101d65780635c526e19146101f25780637c7c252e14610230576100dd565b806321a339ee116100bb57806321a339ee1461014557806321ed3a941461016157806327e235e31461017d5780634cd4ea1d146101ba576100dd565b80630bb9bb3d146100e25780630f433885146100fe578063109e94cf1461011a575b600080fd5b6100fc60048036038101906100f79190610e79565b6102cb565b005b61011860048036038101906101139190610e79565b6103c5565b005b34801561012657600080fd5b5061012f6104bf565b60405161013c9190610ee7565b60405180910390f35b61015f600480360381019061015a9190610e79565b6104e5565b005b61017b60048036038101906101769190610e79565b6105df565b005b34801561018957600080fd5b506101a4600480360381019061019f9190610f40565b6106d9565b6040516101b19190610f7c565b60405180910390f35b6101d460048036038101906101cf9190610e79565b6106f1565b005b6101f060048036038101906101eb9190610e79565b6107eb565b005b3480156101fe57600080fd5b5061021960048036038101906102149190610e79565b6108e5565b604051610227929190611030565b60405180910390f35b61024a60048036038101906102459190610e79565b610991565b005b34801561025857600080fd5b50610261610a8b565b60405161026e9190610ee7565b60405180910390f35b610291600480360381019061028c9190610e79565b610aaf565b005b6102ad60048036038101906102a89190610e79565b610ba9565b005b6102c960048036038101906102c49190610e79565b610ca3565b005b6040518060400160405280601381526020017f547269756d70682054726964656e7420363630000000000000000000000000008152506003600060028152602001908152602001600020600001908051906020019061032b929190610d9b565b506103206003600060028152602001908152602001600020600101819055506003600080815260200190815260200160002060010154811461036c57600080fd5b80600260003373ffffffffffffffffffffffffffffffffffffffff1673ffffffffffffffffffffffffffffffffffffffff16815260200190815260200160002060008282546103bb919061108f565b9250508190555050565b6040518060400160405280601881526020017f526f79616c20456e6669656c64204d6574656f7220333530000000000000000081525060036000600181526020019081526020016000206000019080519060200190610425929190610d9b565b506102586003600060018152602001908152602001600020600101819055506003600080815260200190815260200160002060010154811461046657600080fd5b80600260003373ffffffffffffffffffffffffffffffffffffffff1673ffffffffffffffffffffffffffffffffffffffff16815260200190815260200160002060008282546104b5919061108f565b9250508190555050565b600160009054906101000a900473ffffffffffffffffffffffffffffffffffffffff1681565b6040518060400160405280601381526020017f547269756d70682054726964656e74203636300000000000000000000000000081525060036000600381526020019081526020016000206000019080519060200190610545929190610d9b565b506101906003600060038152602001908152602001600020600101819055506003600080815260200190815260200160002060010154811461058657600080fd5b80600260003373ffffffffffffffffffffffffffffffffffffffff1673ffffffffffffffffffffffffffffffffffffffff16815260200190815260200160002060008282546105d5919061108f565b9250508190555050565b6040518060400160405280601581526020017f447563617469204d756c746973747261646120563400000000000000000000008152506003600060088152602001908152602001600020600001908051906020019061063f929190610d9b565b506107086003600060088152602001908152602001600020600101819055506003600080815260200190815260200160002060010154811461068057600080fd5b80600260003373ffffffffffffffffffffffffffffffffffffffff1673ffffffffffffffffffffffffffffffffffffffff16815260200190815260200160002060008282546106cf919061108f565b9250508190555050565b60026020528060005260406000206000915090505481565b6040518060400160405280600d81526020017f424d57205220313235302047530000000000000000000000000000000000000081525060036000600481526020019081526020016000206000019080519060200190610751929190610d9b565b506105786003600060048152602001908152602001600020600101819055506003600080815260200190815260200160002060010154811461079257600080fd5b80600260003373ffffffffffffffffffffffffffffffffffffffff1673ffffffffffffffffffffffffffffffffffffffff16815260200190815260200160002060008282546107e1919061108f565b9250508190555050565b6040518060400160405280600e81526020017f417072696c6961205253203636300000000000000000000000000000000000008152506003600060068152602001908152602001600020600001908051906020019061084b929190610d9b565b506103e86003600060068152602001908152602001600020600101819055506003600080815260200190815260200160002060010154811461088c57600080fd5b80600260003373ffffffffffffffffffffffffffffffffffffffff1673ffffffffffffffffffffffffffffffffffffffff16815260200190815260200160002060008282546108db919061108f565b9250508190555050565b600360205280600052604060002060009150905080600001805461090890611114565b80601f016020809104026020016040519081016040528092919081815260200182805461093490611114565b80156109815780601f1061095657610100808354040283529160200191610981565b820191906000526020600020905b81548152906001019060200180831161096457829003601f168201915b5050505050908060010154905082565b6040518060400160405280600e81526020017f417072696c696120525320363630000000000000000000000000000000000000815250600360006007815260200190815260200160002060000190805190602001906109f1929190610d9b565b506101f460036000600781526020019081526020016000206001018190555060036000808152602001908152602001600020600101548114610a3257600080fd5b80600260003373ffffffffffffffffffffffffffffffffffffffff1673ffffffffffffffffffffffffffffffffffffffff1681526020019081526020016000206000828254610a81919061108f565b9250508190555050565b60008054906101000a900473ffffffffffffffffffffffffffffffffffffffff1681565b6040518060400160405280600d81526020017f424d57205220313235302047530000000000000000000000000000000000000081525060036000600581526020019081526020016000206000019080519060200190610b0f929190610d9b565b506102bc60036000600581526020019081526020016000206001018190555060036000808152602001908152602001600020600101548114610b5057600080fd5b80600260003373ffffffffffffffffffffffffffffffffffffffff1673ffffffffffffffffffffffffffffffffffffffff1681526020019081526020016000206000828254610b9f919061108f565b9250508190555050565b6040518060400160405280601581526020017f447563617469204d756c7469737472616461205634000000000000000000000081525060036000600981526020019081526020016000206000019080519060200190610c09929190610d9b565b5061038460036000600981526020019081526020016000206001018190555060036000808152602001908152602001600020600101548114610c4a57600080fd5b80600260003373ffffffffffffffffffffffffffffffffffffffff1673ffffffffffffffffffffffffffffffffffffffff1681526020019081526020016000206000828254610c99919061108f565b9250508190555050565b6040518060400160405280601881526020017f526f79616c20456e6669656c64204d6574656f72203335300000000000000000815250600360008081526020019081526020016000206000019080519060200190610d02929190610d9b565b506104b0600360008081526020019081526020016000206001018190555060036000808152602001908152602001600020600101548114610d4257600080fd5b80600260003373ffffffffffffffffffffffffffffffffffffffff1673ffffffffffffffffffffffffffffffffffffffff1681526020019081526020016000206000828254610d91919061108f565b9250508190555050565b828054610da790611114565b90600052602060002090601f016020900481019282610dc95760008555610e10565b82601f10610de257805160ff1916838001178555610e10565b82800160010185558215610e10579182015b82811115610e0f578251825591602001919060010190610df4565b5b509050610e1d9190610e21565b5090565b5b80821115610e3a576000816000905550600101610e22565b5090565b600080fd5b6000819050919050565b610e5681610e43565b8114610e6157600080fd5b50565b600081359050610e7381610e4d565b92915050565b600060208284031215610e8f57610e8e610e3e565b5b6000610e9d84828501610e64565b91505092915050565b600073ffffffffffffffffffffffffffffffffffffffff82169050919050565b6000610ed182610ea6565b9050919050565b610ee181610ec6565b82525050565b6000602082019050610efc6000830184610ed8565b92915050565b6000610f0d82610ea6565b9050919050565b610f1d81610f02565b8114610f2857600080fd5b50565b600081359050610f3a81610f14565b92915050565b600060208284031215610f5657610f55610e3e565b5b6000610f6484828501610f2b565b91505092915050565b610f7681610e43565b82525050565b6000602082019050610f916000830184610f6d565b92915050565b600081519050919050565b600082825260208201905092915050565b60005b83811015610fd1578082015181840152602081019050610fb6565b83811115610fe0576000848401525b50505050565b6000601f19601f8301169050919050565b600061100282610f97565b61100c8185610fa2565b935061101c818560208601610fb3565b61102581610fe6565b840191505092915050565b6000604082019050818103600083015261104a8185610ff7565b90506110596020830184610f6d565b9392505050565b7f4e487b7100000000000000000000000000000000000000000000000000000000600052601160045260246000fd5b600061109a82610e43565b91506110a583610e43565b9250827fffffffffffffffffffffffffffffffffffffffffffffffffffffffffffffffff038211156110da576110d9611060565b5b828201905092915050565b7f4e487b7100000000000000000000000000000000000000000000000000000000600052602260045260246000fd5b6000600282049050600182168061112c57607f821691505b60208210810361113f5761113e6110e5565b5b5091905056fea2646970667358221220dfca2413792bd29f96d9a2378bc7eaba9a8bb16429ad89cb1e48f62ec8191a4764736f6c634300080e0033",
  "immutableReferences": {},
  "source": "// SPDX-License-Identifier: MIT\npragma solidity >=0.4.22 <0.9.0;\n\ncontract BikeRenting {\n  address payable public owner;\n  address payable public client;\n  mapping(address => uint) public balances;\n  mapping(uint => Bike) public bikes;\n\n  struct Bike {\n    string name;\n    uint price;\n  }\n\n  constructor() {\n    owner = payable( msg.sender);\n  }\n\n  function rentRoyalAllDay(uint _amount) public payable {\n    bikes[0].name = \"Royal Enfield Meteor 350\";\n    bikes[0].price = 1200;\n    require(_amount == bikes[0].price);\n    balances[msg.sender] += _amount;\n  }\n\n  function rentRoyalHalfDay(uint _amount) public payable {\n    bikes[1].name = \"Royal Enfield Meteor 350\";\n    bikes[1].price = 600;\n    require(_amount == bikes[0].price);\n    balances[msg.sender] += _amount;\n  }\n\n  function rentTriumphAllDay(uint _amount) public payable {\n    bikes[2].name = \"Triumph Trident 660\";\n    bikes[2].price = 800;\n    require(_amount == bikes[0].price);\n    balances[msg.sender] += _amount;\n  }\n\n  function rentTriumphHalfDay(uint _amount) public payable {\n    bikes[3].name = \"Triumph Trident 660\";\n    bikes[3].price = 400;\n    require(_amount == bikes[0].price);\n    balances[msg.sender] += _amount;\n  }\n\n  function rentBmwAllDay(uint _amount) public payable {\n    bikes[4].name = \"BMW R 1250 GS\";\n    bikes[4].price = 1400;\n    require(_amount == bikes[0].price);\n    balances[msg.sender] += _amount;\n  }\n\n  function rentBmwHalfDay(uint _amount) public payable {\n    bikes[5].name = \"BMW R 1250 GS\";\n    bikes[5].price = 700;\n    require(_amount == bikes[0].price);\n    balances[msg.sender] += _amount;\n  }\n\n  function rentApriliaAllDay(uint _amount) public payable {\n    bikes[6].name = \"Aprilia RS 660\";\n    bikes[6].price = 1000;\n    require(_amount == bikes[0].price);\n    balances[msg.sender] += _amount;\n  }\n\n  function rentApriliaHalfDay(uint _amount) public payable {\n    bikes[7].name = \"Aprilia RS 660\";\n    bikes[7].price = 500;\n    require(_amount == bikes[0].price);\n    balances[msg.sender] += _amount;\n  }\n\n  function rentDucatiAllDay(uint _amount) public payable {\n    bikes[8].name = \"Ducati Multistrada V4\";\n    bikes[8].price = 1800;\n    require(_amount == bikes[0].price);\n    balances[msg.sender] += _amount;\n  }\n\n  function rentDucatiHalfDay(uint _amount) public payable {\n    bikes[9].name = \"Ducati Multistrada V4\";\n    bikes[9].price = 900;\n    require(_amount == bikes[0].price);\n    balances[msg.sender] += _amount;\n  }\n\n}\n",
  "sourcePath": "/home/bone/Documentos/COINTINUM/solidity/Bikes/contracts/BikeRenting.sol",
  "compiler": {
    "name": "solc",
    "version": "0.8.14+commit.80d49f37.Emscripten.clang"
  },
  "schemaVersion": "3.4.7",
  "updatedAt": "2022-07-11T03:34:12.541Z",
  "devdoc": {
    "kind": "dev",
    "methods": {},
    "version": 1
  },
  "userdoc": {
    "kind": "user",
    "methods": {},
    "version": 1
  }
}