{
  "contractName": "BikeRenting",
  "abi": [
    {
      "inputs": [],
      "stateMutability": "nonpayable",
      "type": "constructor"
    },
    {
      "inputs": [],
      "name": "Aprilia",
      "outputs": [
        {
          "internalType": "string",
          "name": "",
          "type": "string"
        }
      ],
      "stateMutability": "view",
      "type": "function"
    },
    {
      "inputs": [],
      "name": "ApriliaPrice",
      "outputs": [
        {
          "internalType": "uint256",
          "name": "",
          "type": "uint256"
        }
      ],
      "stateMutability": "view",
      "type": "function"
    },
    {
      "inputs": [],
      "name": "BMW",
      "outputs": [
        {
          "internalType": "string",
          "name": "",
          "type": "string"
        }
      ],
      "stateMutability": "view",
      "type": "function"
    },
    {
      "inputs": [],
      "name": "BMWPrice",
      "outputs": [
        {
          "internalType": "uint256",
          "name": "",
          "type": "uint256"
        }
      ],
      "stateMutability": "view",
      "type": "function"
    },
    {
      "inputs": [],
      "name": "Ducati",
      "outputs": [
        {
          "internalType": "string",
          "name": "",
          "type": "string"
        }
      ],
      "stateMutability": "view",
      "type": "function"
    },
    {
      "inputs": [],
      "name": "DucatiPrice",
      "outputs": [
        {
          "internalType": "uint256",
          "name": "",
          "type": "uint256"
        }
      ],
      "stateMutability": "view",
      "type": "function"
    },
    {
      "inputs": [],
      "name": "RoyalEnfield",
      "outputs": [
        {
          "internalType": "string",
          "name": "",
          "type": "string"
        }
      ],
      "stateMutability": "view",
      "type": "function"
    },
    {
      "inputs": [],
      "name": "RoyalEnfieldPrice",
      "outputs": [
        {
          "internalType": "uint256",
          "name": "",
          "type": "uint256"
        }
      ],
      "stateMutability": "view",
      "type": "function"
    },
    {
      "inputs": [],
      "name": "Triumph",
      "outputs": [
        {
          "internalType": "string",
          "name": "",
          "type": "string"
        }
      ],
      "stateMutability": "view",
      "type": "function"
    },
    {
      "inputs": [],
      "name": "TriumphPrice",
      "outputs": [
        {
          "internalType": "uint256",
          "name": "",
          "type": "uint256"
        }
      ],
      "stateMutability": "view",
      "type": "function"
    },
    {
      "inputs": [
        {
          "internalType": "address",
          "name": "",
          "type": "address"
        }
      ],
      "name": "balances",
      "outputs": [
        {
          "internalType": "uint256",
          "name": "",
          "type": "uint256"
        }
      ],
      "stateMutability": "view",
      "type": "function"
    },
    {
      "inputs": [],
      "name": "client",
      "outputs": [
        {
          "internalType": "address payable",
          "name": "",
          "type": "address"
        }
      ],
      "stateMutability": "view",
      "type": "function"
    },
    {
      "inputs": [],
      "name": "owner",
      "outputs": [
        {
          "internalType": "address payable",
          "name": "",
          "type": "address"
        }
      ],
      "stateMutability": "view",
      "type": "function"
    },
    {
      "inputs": [
        {
          "internalType": "uint256",
          "name": "_value",
          "type": "uint256"
        },
        {
          "internalType": "address payable",
          "name": "_client",
          "type": "address"
        }
      ],
      "name": "rentRoyal",
      "outputs": [],
      "stateMutability": "nonpayable",
      "type": "function"
    }
  ],
  "bytecode": "0x60806040523480156200001157600080fd5b50336000806101000a81548173ffffffffffffffffffffffffffffffffffffffff021916908373ffffffffffffffffffffffffffffffffffffffff1602179055506040518060400160405280601881526020017f526f79616c20456e6669656c64204d6574656f72203335300000000000000000815250600390805190602001906200009f9291906200020b565b506104b06004819055506040518060400160405280601381526020017f547269756d70682054726964656e74203636300000000000000000000000000081525060059080519060200190620000f69291906200020b565b506103206006819055506040518060400160405280600c81526020017f424d572052313235302047530000000000000000000000000000000000000000815250600790805190602001906200014d9291906200020b565b506105786008819055506040518060400160405280600e81526020017f417072696c69612052532036363000000000000000000000000000000000000081525060099080519060200190620001a49291906200020b565b506103e8600a819055506040518060400160405280601581526020017f447563617469204d756c74697374726164612056340000000000000000000000815250600b9080519060200190620001fb9291906200020b565b50610708600c819055506200031f565b8280546200021990620002ea565b90600052602060002090601f0160209004810192826200023d576000855562000289565b82601f106200025857805160ff191683800117855562000289565b8280016001018555821562000289579182015b82811115620002885782518255916020019190600101906200026b565b5b5090506200029891906200029c565b5090565b5b80821115620002b75760008160009055506001016200029d565b5090565b7f4e487b7100000000000000000000000000000000000000000000000000000000600052602260045260246000fd5b600060028204905060018216806200030357607f821691505b602082108103620003195762000318620002bb565b5b50919050565b610922806200032f6000396000f3fe608060405234801561001057600080fd5b50600436106100ea5760003560e01c8063680903fb1161008c578063b2f17b1d11610066578063b2f17b1d1461022b578063df2cbd9414610249578063dfdfbb8714610267578063e685242a14610285576100ea565b8063680903fb146101d15780638da5cb5b146101ef578063a6faf79a1461020d576100ea565b8063207ce1aa116100c8578063207ce1aa1461014757806327e235e3146101655780635f51feb7146101955780636308ec6e146101b3576100ea565b80630d1d37a5146100ef578063109e94cf1461010b5780631b31d20214610129575b600080fd5b610109600480360381019061010491906106d2565b6102a3565b005b6101136102f3565b6040516101209190610721565b60405180910390f35b610131610319565b60405161013e919061074b565b60405180910390f35b61014f61031f565b60405161015c919061074b565b60405180910390f35b61017f600480360381019061017a91906107a4565b610325565b60405161018c919061074b565b60405180910390f35b61019d61033d565b6040516101aa919061074b565b60405180910390f35b6101bb610343565b6040516101c8919061086a565b60405180910390f35b6101d96103d1565b6040516101e6919061074b565b60405180910390f35b6101f76103d7565b6040516102049190610721565b60405180910390f35b6102156103fb565b604051610222919061074b565b60405180910390f35b610233610401565b604051610240919061086a565b60405180910390f35b61025161048f565b60405161025e919061086a565b60405180910390f35b61026f61051d565b60405161027c919061086a565b60405180910390f35b61028d6105ab565b60405161029a919061086a565b60405180910390f35b60045491508073ffffffffffffffffffffffffffffffffffffffff166108fc839081150290604051600060405180830381858888f193505050501580156102ee573d6000803e3d6000fd5b505050565b600160009054906101000a900473ffffffffffffffffffffffffffffffffffffffff1681565b60085481565b60045481565b60026020528060005260406000206000915090505481565b600a5481565b600b8054610350906108bb565b80601f016020809104026020016040519081016040528092919081815260200182805461037c906108bb565b80156103c95780601f1061039e576101008083540402835291602001916103c9565b820191906000526020600020905b8154815290600101906020018083116103ac57829003601f168201915b505050505081565b60065481565b60008054906101000a900473ffffffffffffffffffffffffffffffffffffffff1681565b600c5481565b6003805461040e906108bb565b80601f016020809104026020016040519081016040528092919081815260200182805461043a906108bb565b80156104875780601f1061045c57610100808354040283529160200191610487565b820191906000526020600020905b81548152906001019060200180831161046a57829003601f168201915b505050505081565b6007805461049c906108bb565b80601f01602080910402602001604051908101604052809291908181526020018280546104c8906108bb565b80156105155780601f106104ea57610100808354040283529160200191610515565b820191906000526020600020905b8154815290600101906020018083116104f857829003601f168201915b505050505081565b6009805461052a906108bb565b80601f0160208091040260200160405190810160405280929190818152602001828054610556906108bb565b80156105a35780601f10610578576101008083540402835291602001916105a3565b820191906000526020600020905b81548152906001019060200180831161058657829003601f168201915b505050505081565b600580546105b8906108bb565b80601f01602080910402602001604051908101604052809291908181526020018280546105e4906108bb565b80156106315780601f1061060657610100808354040283529160200191610631565b820191906000526020600020905b81548152906001019060200180831161061457829003601f168201915b505050505081565b600080fd5b6000819050919050565b6106518161063e565b811461065c57600080fd5b50565b60008135905061066e81610648565b92915050565b600073ffffffffffffffffffffffffffffffffffffffff82169050919050565b600061069f82610674565b9050919050565b6106af81610694565b81146106ba57600080fd5b50565b6000813590506106cc816106a6565b92915050565b600080604083850312156106e9576106e8610639565b5b60006106f78582860161065f565b9250506020610708858286016106bd565b9150509250929050565b61071b81610694565b82525050565b60006020820190506107366000830184610712565b92915050565b6107458161063e565b82525050565b6000602082019050610760600083018461073c565b92915050565b600061077182610674565b9050919050565b61078181610766565b811461078c57600080fd5b50565b60008135905061079e81610778565b92915050565b6000602082840312156107ba576107b9610639565b5b60006107c88482850161078f565b91505092915050565b600081519050919050565b600082825260208201905092915050565b60005b8381101561080b5780820151818401526020810190506107f0565b8381111561081a576000848401525b50505050565b6000601f19601f8301169050919050565b600061083c826107d1565b61084681856107dc565b93506108568185602086016107ed565b61085f81610820565b840191505092915050565b600060208201905081810360008301526108848184610831565b905092915050565b7f4e487b7100000000000000000000000000000000000000000000000000000000600052602260045260246000fd5b600060028204905060018216806108d357607f821691505b6020821081036108e6576108e561088c565b5b5091905056fea2646970667358221220d70fa719cf9892791f870e75890df2030dff2e6fdca4886ae1bb044f2aa64db964736f6c634300080e0033",
  "immutableReferences": {},
  "source": "// SPDX-License-Identifier: MIT\npragma solidity >=0.4.22 <0.9.0;\n\ncontract BikeRenting {\n  address payable public owner;\n  address payable public client;\n  mapping(address => uint) public balances;\n  string public RoyalEnfield;\n  uint public RoyalEnfieldPrice;\n  string public Triumph;\n  uint public TriumphPrice;\n  string public BMW;\n  uint public BMWPrice;\n  string public Aprilia;\n  uint public ApriliaPrice;\n  string public Ducati;\n  uint public DucatiPrice;\n\n  constructor() {\n    owner = payable( msg.sender);\n    RoyalEnfield = \"Royal Enfield Meteor 350\";\n    RoyalEnfieldPrice = 1200;\n    Triumph = \"Triumph Trident 660\";\n    TriumphPrice = 800;\n    BMW = \"BMW R1250 GS\";\n    BMWPrice = 1400;\n    Aprilia = \"Aprilia RS 660\";\n    ApriliaPrice = 1000;\n    Ducati = \"Ducati Multistrada V4\";\n    DucatiPrice = 1800;\n  }\n\n  function rentRoyal(uint _value, address payable _client) public {\n    _value = RoyalEnfieldPrice;\n    _client.transfer(_value);\n  }\n\n}\n",
  "sourcePath": "/home/bone/Documentos/COINTINUM/solidity/Bikes/contracts/BikeRenting.sol",
  "compiler": {
    "name": "solc",
    "version": "0.8.14+commit.80d49f37.Emscripten.clang"
  },
  "schemaVersion": "3.4.7",
  "updatedAt": "2022-07-07T01:38:53.377Z",
  "devdoc": {
    "kind": "dev",
    "methods": {},
    "version": 1
  },
  "userdoc": {
    "kind": "user",
    "methods": {},
    "version": 1
  }
}